:020000040800F2
:1000000020410020C1010008C9010008CB010008FF
:10001000CD010008CF010008D10100080000000058
:1000200000000000000000000000000005130008B0
:10003000D501000800000000791100083D130008F8
:10004000DB010008DB010008DB010008DB01000820
:10005000DB010008DB010008DB010008DB01000810
:10006000DB010008DB010008DB010008DB01000800
:10007000DB010008DB010008DB010008DB010008F0
:10008000DB010008DB010008DB010008DB010008E0
:10009000DB010008DB010008DB010008DB010008D0
:1000A000DB010008DB010008DB010008DB010008C0
:1000B000DB010008DB010008DB010008DB010008B0
:1000C000DB010008DB010008DB010008DB010008A0
:1000D000DB010008DB010008DB010008DB01000890
:1000E000DB010008DB010008DB010008DB01000880
:1000F000DB010008DB010008DB010008DB01000870
:10010000DB010008DB010008DB010008DB0100085F
:10011000DB010008DB010008DB010008DB0100084F
:10012000DB010008DB010008DB010008DB0100083F
:10013000DB010008DB010008DB010008DB0100082F
:10014000DB010008DB010008DB010008DB0100081F
:10015000DB010008DB010008DB010008DB0100080F
:10016000DB010008DB010008DB010008DB010008FF
:10017000DB010008DB010008DB01000800000000D3
:10018000DB010008DB010008DB010008DB010008DF
:10019000DB010008DB010008DB010008DB010008CF
:1001A000DB010008DB010008DB010008DFF80CD0F0
:1001B00000F02EF8004800472D1B000820410020C9
:1001C0000648804706480047FEE7FEE7FEE7FEE7F1
:1001D000FEE7FEE7FEE7FEE7FEE7FEE7F5130008B1
:1001E000AD01000830B50B46014600202022012455
:1001F00009E021FA02F59D4205D303FA02F5491BF5
:1002000004FA02F52844151EA2F10102F1DC30BD0A
:10021000064C074D06E0E06840F0010394E8070053
:1002200098471034AC42F6D3FFF7C4FFA03E000855
:10023000C03E000831B500F0AFF9009C0546601CD7
:1002400000D0641C00F0A8F9401BA042FAD338BDCE
:100250002DE9F04FDFF838B100224FF001094FF0DF
:100260000F0A00BF09FA02F401EA0403A3427DD198
:10027000066857000325BD40AE430660D60800EB74
:100280008606D6F820C057074FEAD7680AFA08F75B
:100290002CEA070CC6F820C08668AE438660466824
:1002A000A6434660C468AC43C46022F003055D44C5
:1002B000D5F808789407260F0AFA06F4DFF8D4C0B8
:1002C0002740604502D14FF0000C40E0DFF8C8C085
:1002D000604502D14FF0010C39E0DFF8C0C0604545
:1002E00002D14FF0020C32E0DFF8B4C0604502D119
:1002F0004FF0030C2BE0DFF8ACC0604502D14FF0AB
:10030000040C24E0DFF8A0C0604502D14FF0050CDA
:100310001DE0DFF898C0604502D14FF0060C16E0F2
:10032000DFF88CC0604502D14FF0070C0FE0DFF81A
:1003300084C0604502D14FF0080C08E0DFF878C0B7
:10034000604502D14FF0090C01E04FF00A0C0CFAA5
:1003500006FCBC4516D1D5F80868A643C5F8086860
:10036000164C25689D432560241D00E00AE02568A1
:100370009D432560241D25689D432560241D256817
:100380009D432560521C102AFFF46CAFBDE8F08F2E
:10039000003001400000024000040240000802401A
:1003A000000C0240001002400014024000180240FD
:1003B000001C02400020024000240240003C01409A
:1003C0002DE9F84FDFF890B100224FF001084FF00F
:1003D000030A4FF00F090BF1040E00BF0B6808FA77
:1003E00002F42340A3426ED14D68022D01D0122D9C
:1003F0000ED1D50800EB850CDCF820505607F70E1F
:1004000009FA07F6B5430E69BE402E43CCF82060CA
:10041000066855000F790AFA05FC07F0030726EA7B
:100420000C06AF40374307604E68012E05D0022E00
:1004300003D0112E01D0122E0ED18768CE6827EA84
:100440000C07AE403E4386604668A6430C79C4F371
:100450000014944034434460C4688E6824EA0C0459
:10046000AE402643C6604C68E4006FD53B4C25681F
:1004700045F480452560246822F0030504F4804497
:100480000094374C2E19D6F8084895072F0F09FA13
:1004900007F5AC43334DA84201D100252EE0324D83
:1004A000A84201D1012529E0304DA84201D1022501
:1004B00024E02F4DA84201D103251FE02D4DA84275
:1004C00002D104251AE041E02B4DA84201D10525B7
:1004D00014E02A4DA84201D106250FE0284DA8427C
:1004E00001D107250AE0274DA84201D1082505E0E2
:1004F000254DA84201D1092500E00A25BD4025432C
:10050000C6F80858DBF800405D464E689C43F60389
:1005100000D51C432C60DEF8004075464E689C43B5
:10052000B60300D51C432C600B4D08352C684E6873
:100530009C43F60200D51C432C60074D0C352C68FB
:100540004E689C43B60200D51C432C60521C102AF6
:10055000FFF444AFBDE8F88F003C0140443802404E
:100560000030014000000240000402400008024048
:10057000000C02400010024000140240001802402B
:10058000001C024000200240002402400AB18161A8
:1005900070470904FBE7000001480068704700004D
:1005A0000800002002480168491C016070470000F3
:1005B000080000200B4810B5016841F4007101608B
:1005C000016841F480610160016841F4807101605B
:1005D000032000F069F8002000F006F800F018F899
:1005E000002010BD003C024010B5044607484FF4FF
:1005F0007A710068B0FBF1F000F08BFC002221461C
:10060000501E00F031F8002010BD00000400002052
:1006100010B5072000F048F8002211466FF00B00DB
:1006200000F022F8002211466FF00A0000F01CF8DA
:10063000002211466FF0090000F016F80022114662
:10064000501F00F011F800221146101F00F00CF8A6
:1006500000221146901E00F007F80022BDE810406D
:100660001146501EAFF30080F0B40E4B1B680C46D1
:10067000C3F30223C3F10705042D00D90425191D76
:10068000072901D2002300E0DB1E012606FA05F14E
:10069000491E214099409E40761E16403143F0BCD1
:1006A00000F05ABD0CED00E0064900F007020868B2
:1006B0004FF6FF03184040EA0220034A1043086047
:1006C000704700000CED00E00000FA052DE9F8434A
:1006D0001E48016841F0805101600068012600F069
:1006E00080500090300490FAA0F0194FB0FA80F0DA
:1006F00047F82060FFF750FF05464FF47A78154C15
:1007000005E000BFFFF748FF401B404515D8606873
:10071000C003F7D54FF4003090FAA0F0B0FA80F0A3
:1007200047F82060FFF738FF0546464608E000BF5F
:10073000FFF732FF401BB04202D90320BDE8F88327
:1007400060688003F4D50020F8E7000040380240DC
:1007500000000E42007000402DE9F047DFF8649180
:1007600005460F46D9F8000000F00F01F8B28046A8
:10077000B94208D2014689F80010D9F8000000F00B
:100780000F00B84274D128784F4C800705D52068F7
:10079000A96820F0F000084320602878C00759D0ED
:1007A00049496868083901281AD002281BD0032853
:1007B00019D00968890700295ADA216821F0030154
:1007C00001432160FFF7E8FE6968064641F2883080
:1007D000012911D002291DD00329824627D035E0F6
:1007E00009688903E7E709688901E4E7FFF7D4FEB0
:1007F000811B514501D926E082462068C0F3810063
:100800000128F3D126E000BFFFF7C6FE811B51454A
:1008100001D918E082462068C0F381000228F3D194
:1008200018E000BFFFF7B8FE811B51450BD82068C8
:10083000C0F381000328F5D10CE000BFFFF7ACFE48
:10084000811B514502D90320BDE8F087206810F0D4
:100850000C0FF3D1D9F80010484601F00F01B9424E
:1008600008D980F80080006800F00F00B84201D07D
:100870000120E9E72878400705D52068E96820F4D9
:10088000E050084320602878000706D520682969D1
:1008900020F4604040EAC100206000F021F82168A7
:1008A000F02292FAA2F201F0F001B2FA82F2D14003
:1008B000064A515CC840064908600020FFF794FED4
:1008C0000020C1E7003C0240083802406C1C0008D0
:1008D0000400002001480068704700000400002068
:1008E00030B51948006810F00C01184812D04410B7
:1008F00004290ED008290DD11349091F0A6802F0F6
:100900003F030A68550247F6C07204D5B4FBF3F002
:1009100003E0204630BDB0FBF3F00B6809681340DC
:1009200092FAA2F2B2FA82F2D34058434FF4403224
:1009300092FAA2F201F44031B2FA82F2D140491C9B
:100940004900B0FBF1F030BD083802400024F4004B
:100950002DE9F84F0546DFF8FC920078A9F1040B69
:10096000C007ABF1040449D0D9F800104846C1F3E0
:100970008101012908D00068C0F3810002280AD152
:10098000DBF80000400206D52068800336D5686891
:1009900000286ED032E06868B0F5803F10D0B0F526
:1009A000A02F206810D020F480302060206820F430
:1009B000802020606868A0B1FFF7EEFD06460CE0DD
:1009C000206840F48030F4E740F480202060F7E7AE
:1009D000FFF7E2FD801B642871D820688003F7D5FB
:1009E0000CE0FFF7D9FD064605E000BFFFF7D4FD98
:1009F000801B6428F0D820688003F7D42878964FAD
:100A000080074FF0010A4FF0000841D5D9F80010D7
:100A1000484611F00C0F08D00068C0F3810002288E
:100A20000AD1DBF80000400206D42068800713D505
:100A3000E86801281DD10FE0E868D8B1C7F800A028
:100A4000FFF7AAFD064604E0FFF7A6FD801B02287B
:100A5000C2D820688007F7D52068F82292FAA2F25F
:100A60002969B2FA82F220F0F80091400843206030
:100A70000EE0ECE0C7F80080FFF78EFD064604E0CC
:100A8000FFF78AFD801B022819D820688007F7D459
:100A90002878000724D57148696989B1C0F800A099
:100AA000FFF77AFD064604E0FFF776FD801B02287B
:100AB00005D868486C3000688007F5D510E07AE00A
:100AC000C0F80080FFF768FD064604E0FFF764FD0C
:100AD000801B02286FD85F486C3000688007F5D40F
:100AE0002878400753D55B483830016841F0805181
:100AF0000160006800F0805000905948016841F49E
:100B000080710160FFF748FD064604E0FFF744FDF1
:100B1000801B02284FD852480068C005F6D54D4EBC
:100B2000A868683601280FD00528306810D020F05A
:100B300001003060306820F004003060A868B8B16F
:100B4000FFF72AFD00900FE0306840F00100F4E765
:100B500040F004003060F7E7FFF71EFD0099411AEE
:100B600041F2883081426AD830688007F4D50EE0BF
:100B7000FFF712FD009007E0FFF70EFD0099411A04
:100B800041F2883081425AD830688007F4D4A8698D
:100B9000E8B3D9F80010C1F38101022957D0022827
:100BA000C7F8608003D0FFF7F7FC05464AE0FFF77F
:100BB000F3FC064605E042E0FFF7EEFC801B02284E
:100BC0003DD820688001F7D4D5E90701084347F6EE
:100BD000C07292FAA2F2696AB2FA82F29140AA6AEB
:100BE0004FF0FF3303EB52024FF4403393FAA3F379
:100BF000B3FA83F39A40114308434FF0706292FABC
:100C0000A2F2E96AB2FA82F29140084300E01CE0E5
:100C1000CBF80000C7F860A0FFF7BEFC054604E073
:100C2000FFF7BAFC401B022809D820688001F7D5DD
:100C30000BE000BFFFF7B0FC401B022802D90320E5
:100C4000BDE8F88F20688001F4D40020F8E7012087
:100C5000F6E700000838024000004742800E474295
:100C60000070004010B5040011D0022084F851003B
:100C70002068016821F040010160204600F04CF836
:100C80000020606584F8510084F8500010BD0120F8
:100C900010BD90F85100704770B5040005D00025D4
:100CA000A56294F8510010B106E0012070BD84F8EF
:100CB0005050204600F046F8022084F85100206889
:100CC000016821F040010160D4E901010843D4E941
:100CD00003121143084361690843218B01F4007139
:100CE0000843E1690843216A0843A16A084321686F
:100CF0000860A069042101EA1040616A0843216884
:100D000048602068C16921F40061C1616565012006
:100D100084F85100002070BD00680749884209D15D
:100D20000648016821F4801101604FF460710448A5
:100D3000FFF78EBA7047000000500140443802406F
:100D40000014024000B500680E4987B0884217D1F0
:100D50000D480021026842F480120260006800F42D
:100D6000801005904FF4607000900220CDE90101E1
:100D7000032003900520049069460448FFF720FBF8
:100D800007B000BD0050014044380240001402404A
:100D90002DE9F84F044690F8500000269946174672
:100DA0000D4601280DD04FF0010B84F850B0FFF72D
:100DB000F3FB804694F85100B246012804D0022685
:100DC00094E00220BDE8F88F002D7BD0002F79D071
:100DD000032084F85100C4F854A02563A786E78651
:100DE000C4F838A0A4F83CA0A4F83EA0C4F844A0DD
:100DF000C4F840A0A068B0F5004F04D12068016895
:100E000041F48041016020680168490603D401680B
:100E100041F040010160E068B0F5006F606804D007
:100E200030B3E08E012823D03EE010B1E08E0128DF
:100E30001AD135F8021B206805E02068816889070F
:100E400006D535F8021BC160E08E401EE0860BE03F
:100E5000B9F1000F34D0B9F1FF3F05D0FFF79CFB8B
:100E6000A0EB080149452BD2E08E0028E5D11EE019
:100E7000216815F8010B087306E02068816889076E
:100E800006D515F8011B0173E08E401EE0860BE0CD
:100E9000B9F1000F14D0B9F1FF3F05D0FFF77CFB8B
:100EA000A0EB080149450BD2E08E0028E5D14B4666
:100EB000012202212046CDF8008000F06EF910B129
:100EC000032613E011E042464946204600F055F95A
:100ED00018B101262020606508E0A06818B92068D4
:100EE000C16880680090606D00B1012684F851B03F
:100EF00084F850A0304665E74FF0E02104280869E7
:100F000003D020F004000861704740F00400FAE7C5
:100F1000704710B5401EB0F1807F01D3012010BD95
:100F20004FF0E02460610F21601700F015F90020F8
:100F3000A06107202061002010BD10B5FFF7E8FF79
:100F400010BDFFF777B900002DE9F041244886B0C5
:100F50000178002940D1234C012505702068002626
:100F600040F0080020602068022700F0080005908B
:100F700068038DE8E100DFF8708069464046FFF7BE
:100F80001FFA206840F0080020602068694600F0E1
:100F900008000590A0148DE8E1004046FFF710FA24
:100FA000206840F0040020602068104C00F004002D
:100FB000059004208DE8E10069462046FFF700FA1D
:100FC000002204212046FFF7E1FA012204212046F5
:100FD000FFF7DCFA00F036F906B0BDE8F08100005A
:100FE0000C00002030380240000C02400008024093
:100FF00070B50546012251030948FFF7C7FA094CAD
:10100000002204212046FFF7C1FA284600F068F9C3
:101010002046BDE8704001220421FFF7B7BA000066
:10102000000C02400008024070B5054600224FF453
:1010300000510948FFF7AAFA084C00220421204673
:10104000FFF7A4FA284600F04BF92046BDE87040AF
:1010500001220421FFF79ABA000C02400008024066
:101060002DE9F04105463620FFF7DEFF0F4CF02753
:101070004FF4A07635B1012D06D0022D0BD0032DF3
:101080000BD00DE0582000E08820FFF7B1FF27804B
:101090006680012007E0282000E0E820FFF7A8FF95
:1010A0002680678000202071BDE8F0813400002098
:1010B00070B5174886B00024016841F02001016036
:1010C000016801F020010591016841F08001016093
:1010D000016801F080010591016841F04001016063
:1010E00000680C4E00F040004FF4C045059000220F
:1010F00029463046FFF74AFA01200095CDE9010460
:10110000694630460394FFF75BF906B070BD0000F6
:1011100030380240001802400E4810B50C490160FA
:101120004FF48271416000218160C1604FF4007210
:101130000161C0E90512C1610162416281620A2157
:10114000C162FFF7A9FD002800D0FEE710BD000036
:1011500000500140440000200907090E002806DA6B
:1011600000F00F0000F1E02080F8141D704700F13E
:10117000E02080F800147047704738B50B460092A5
:1011800004460022802100F008F8002804D0606D99
:1011900040F020006065032038BD2DE9F0411D4678
:1011A00017460E460446DDF8188035E0681C33D03B
:1011B0002DB1FFF7F1F9A0EB0800A8422CD320686D
:1011C000416821F0E00141606068B0F5827F0BD199
:1011D000A068B0F5004F02D0B0F5806F04D1206850
:1011E000016821F040010160A06AB0F5005F0AD1FA
:1011F000206801684DF6FF721140016020680168A7
:1012000041F400510160012084F85100002084F86D
:1012100050000320BDE8F0812068806836EA0000B5
:1012200004D00020B842C1D10020F3E70120F9E743
:1012300010B50348FFF716FDBDE8104000F002B8F6
:10124000B000002000B587B02148FFF722FD00283C
:101250003BD11F481F4901601821C16100218160F5
:10126000416107220161C0E90A12C1604FF40072B6
:101270000162826141624FF48271416016480168E7
:1012800041F480110160006800F48010059012485C
:101290001438016841F0200101600068694600F0DF
:1012A000200005904FF460700090022001900290A1
:1012B00001200390052004900848FFF781F807B04B
:1012C00003485DF804EBFFF7E7BC07B000BD000082
:1012D000B000002000500140443802400014024099
:1012E00001B506480122694683680548FFF750FDAD
:1012F000002801D0FFF79CFF08BD00000C00002073
:10130000B0000020704700000449054A096801EB5D
:10131000410102EB8101486070470000300000206D
:10132000080100200349044A096801EB410142F821
:1013300021007047300000200801002010B5FFF7A1
:1013400031F9BDE81040FFF7F8BD000030B527487F
:1013500093B00025016841F080510160006800F001
:10136000805011902248016841F4404101600068BA
:10137000022400F4404011900120009000040190EC
:101380008001CDE90640082008904FF4B470CDE903
:10139000090407200B906846FFF7DAFA00B1FEE770
:1013A000FFF794F900B1FEE70CA90F2081E83100A6
:1013B0004FF4C0500F904FF4A050109005210CA88E
:1013C000FFF7CAF900B1FEE7FFF784FA4FF47A712C
:1013D000B0FBF1F0FFF79DFD0420FFF78DFD00222B
:1013E0001146501EFFF740F913B030BD403802409F
:1013F000007000401048016841F4700101600F481E
:10140000016841F0010101600C4A002108321160BD
:1014100002680B4B1A400260031D0A4A1A600268F8
:1014200022F48022026005480C300160024958060F
:10143000803908607047000088ED00E00038024005
:10144000FFFFF6FE103000240FB4084B10B504A9BE
:1014500002AA039800F01CF8044602A9002000F03C
:10146000C1F8204610BC5DF814FB0000E51500082B
:1014700002E008C8121F08C1002AFAD1704770475D
:10148000002001E001C1121F002AFBD170470000BB
:101490002DE9FF4F89B09B460446002506E025282C
:1014A0000BD05A460B999047641C6D1C207800287D
:1014B000F5D10DB02846BDE8F08F0027B8460122CF
:1014C000474900E0074314F8013F203B02FA03F0CC
:1014D0000842F7D120782E2819D114F8010F47F0CF
:1014E00004072A280ED06FF02F022078A0F13001D7
:1014F00009290CD808EB880102EB410100EB010837
:10150000641CF2E70A98641C50F8048B0A90207857
:101510000028CED0642808D0692806D075281ED0AF
:101520005A460B9990476D1C58E00A994FF00A09EA
:1015300001C90A91002802DA40422D2102E0390552
:1015400004D52B218DF82010012103E0F90704D0E8
:101550002021F7E78A4608AE0DE00021FAE70A9954
:101560004FF00A0901C90A91F7E74946FEF73AFE2A
:10157000303106F8011D0028F7D1ADEB060000F16F
:101580002009780701D44FF00108C84502DDA8EB17
:10159000090000E000208046002706E008A85A461F
:1015A000C05D0B9990476D1C7F1C5745F6DB04E02E
:1015B00030205A460B9990476D1CB8F10001A8F1F4
:1015C0000108F5DC05E016F8010B5A460B99904727
:1015D0006D1CB9F10001A9F10109F4DC641C65E797
:1015E000092801000A68531C0B60107070472DE930
:1015F000F047002ADDF8209026DB002B24DBEF28C3
:1016000022DC4FF4A074A1421EDA002800DA002088
:10161000002900DA00218846EF2A00DDEF22164675
:10162000A34201DB40F23F131F4604460AE0454651
:1016300005E0A9B2A0B24A4600F03CF96D1CBD42DB
:10164000F7D9641CB442F2D9BDE8F08710B500F0B8
:1016500046F9BDE8104000F03FB9000030B40A4C34
:10166000246804EB4405094C04EB8504A360DD8881
:101670001C689B88DB1DDB08203A13FB02F205FB8C
:10168000024230BC00F062B83000002008010020A7
:101690002DE9F0478A46002615463146DDF82090B0
:1016A00000E0491C12F8014B002CFAD1DFF89480BD
:1016B000254FD8F8002002EB420207EB8202926825
:1016C0009488F022B2FBF4F2012B03D0022B06D057
:1016D000044608E0511A614300EB510002E0511A40
:1016E00001FB040084B2174B00210C332022084672
:1016F000FFF7B4FF11E04B4651462046FFF7AEFF1F
:10170000D8F80000761C00EB400007EB8000B6B272
:1017100080686D1C8088204484B22A78002A0ED00C
:10172000D8F8000000EB400007EB8000806880885C
:1017300000FB06F1C1F1F00189B28142DBD2BDE8C4
:10174000F087000030000020080100202DE9F74F4D
:10175000DFF8A4A00026DAF8000000EB40012748DB
:1017600000EB810080688588C788E81D834620F0EB
:101770000700401B00F0FF093AE000BF4FEADB0121
:101780000298012901FB06000BD002290BD0017839
:1017900042780904807841EA022141EA00080024E5
:1017A0001FE0007801E0008840BA8046F7E7291B77
:1017B00049440120491E884010EA080FDAF8000069
:1017C00000EB40010D4802D050F8212002E000EB70
:1017D0008100426800980199204480B200F06AF8C4
:1017E000641CAC42E3D30198401C80B2761C01908B
:1017F000BE42C3D3BDE8FE8F3000002008010020A8
:101800002DE9FE4F0027141A002C00DC841A0FFA71
:1018100084F85C1A002C00DCCC1A0FFA84FC06B2A7
:101820000DB24FF0FF34824203D301208246019073
:1018300001E0A24601948B4203D30120814600902F
:1018400001E0A1460094E0454FF0000008DB81462E
:10185000019008EBD870C3464410CDF808C025E0CD
:10186000824600200090E3460CEBDC70CDF8088047
:101870004410D8461AE0A9B2B0B20C9A00F01AF897
:101880000298204404B25C4508DBA4EB0B0004B2D0
:101890000198304406B20098284405B206EB0A00CD
:1018A00006B205EB09007F1C05B23FB24745E2DDF9
:1018B000BDE8FE8F10B514460B46024600F0B0F9A5
:1018C0002C20FFF7B1FBC4F30F20FFF791FBE0B230
:1018D000BDE81040FFF78CBB2920FFF7A5BB10B572
:1018E000FFF732FB0120FFF79FFB6420FFF729FB86
:1018F000CB20FFF799FB3920FFF77AFB2C20FFF76D
:1019000077FB0020FFF774FB3420FFF771FB022008
:10191000FFF76EFBCF20FFF787FB0020FFF768FB88
:10192000C120FFF765FB3020FFF762FBE820FFF7DF
:101930007BFB8520FFF75CFB0020FFF759FB78203D
:10194000FFF756FBEA20FFF76FFB0020FFF750FB85
:101950000020FFF74DFBED20FFF766FB6420FFF74B
:1019600047FB0320FFF744FB1220FFF741FB8120D8
:10197000FFF73EFBF720FFF757FB2020FFF738FB70
:10198000C020FFF751FB2320FFF732FBC120FFF7F8
:101990004BFB1020FFF72CFBC520FFF745FB3E203B
:1019A000FFF726FB2820FFF723FBC720FFF73CFBB0
:1019B0008620FFF71DFB3620FFF736FB4820FFF798
:1019C00017FB3A20FFF730FB5520FFF711FBB12042
:1019D000FFF72AFB0020FFF70BFB1820FFF708FB9F
:1019E000B620FFF721FB0820FFF702FB8220FFF75C
:1019F000FFFA2720FFF7FCFAF220FFF715FB002083
:101A0000FFF7F6FA2A20FFF70FFB0020FFF7F0FAA6
:101A10000020FFF7EDFA0020FFF7EAFAEF20FFF7CA
:101A2000E7FA2B20FFF700FB0020FFF7E1FA002088
:101A3000FFF7DEFA0120FFF7DBFA3F20FFF7D8FAC5
:101A40002620FFF7F1FA0120FFF7D2FAE020FFF796
:101A5000EBFA0F20FFF7CCFA3120FFF7C9FA2B2061
:101A6000FFF7C6FA0C20FFF7C3FA0E20FFF7C0FA03
:101A70000820FFF7BDFA4E20FFF7BAFAF120FFF772
:101A8000B7FA3720FFF7B4FA0720FFF7B1FA1020B2
:101A9000FFF7AEFA0320FFF7ABFA0E20FFF7A8FA24
:101AA0000920FFF7A5FA0020FFF7A2FAE120FFF7CF
:101AB000BBFA0020FFF79CFA0E20FFF799FA1420DA
:101AC000FFF796FA0320FFF793FA1120FFF790FA39
:101AD0000720FFF78DFA3120FFF78AFAC120FFF7C0
:101AE00087FA4820FFF784FA0820FFF781FA0F20D1
:101AF000FFF77EFA0C20FFF77BFA3120FFF778FA28
:101B00003620FFF775FA0F20FFF772FA1120FFF762
:101B10008BFA4FF47A70FFF714FA2920FFF784FA52
:101B2000BDE810402C20FFF77FBA000008B5FEF793
:101B300041FDFFF70BFCFFF7BBFAFFF7EDFAFFF7EC
:101B400085FD4FF6FF7400214FF4A073F022084684
:101B50000094FFF74CFD0020FFF782FA4FF4FC6081
:101B60004FF48C7100900B46F0220020FFF748FEE6
:101B70000020FFF7D7FB2046FFF7C6FB124C0323DC
:101B800012A24FF4967100200094FFF781FD032309
:101B900017A264210A200094FFF77AFD1A4C1B4D0E
:101BA0006420FEF747FB227819A11C48FFF74CFC84
:101BB00003231A4A0A2100200095FFF769FD2078C7
:101BC000401C2070ECE7000028000020436F707973
:101BD000726967687420286329205665636D6F6396
:101BE0006F6E20546563682E20323031370000005C
:101BF000416C74616D61736820416264756C205240
:101C00006168696D000000000000002020000020D5
:101C100053706565643A2025640000009C00002034
:101C20002DE9F04107461C4615460E462A20FFF7CF
:101C3000FBF9380AFFF7DCF9F8B2FFF7D9F9280AFF
:101C4000FFF7D6F9E8B2FFF7D3F92B20FFF7ECF94D
:101C5000300AFFF7CDF9F0B2FFF7CAF9200AFFF713
:101C6000C7F9E0B2BDE8F041FFF7C2B900000000DB
:101C7000000000000102030406070809000000003C
:101C80000000000000000000000000000000000054
:101C90000000000000000000000000000000000044
:101CA0000000000000000000000000000000000034
:101CB0000000000000000000000000000000000024
:101CC000000000000000000000000380000380000E
:101CD0000380000380000380000380000380000372
:101CE00080000380000100000100000000000000EF
:101CF00000038000038000000000000000000000DE
:101D000000000000000000000000000000000000D3
:101D100000000000000E70000E70000E7000042025
:101D20000004200004200004200000000000000047
:101D300000000000000000000000000000000000A3
:101D40000000000000000000000000000000000093
:101D500000000000000000000000066000066000B7
:101D60000660000660000660003FF8003FF80006CD
:101D700060000CC0003FF8003FF8000CC0000CC031
:101D8000000CC0000CC0000CC000000000000000EF
:101D90000000000000000000000000000000000142
:101DA000800001800007B0000FF00018700018706C
:101DB000001C00000F800007E00000F00018300059
:101DC0001C30001C70001FE0001BC00001800001DF
:101DD0008000018000018000000000000000000081
:101DE000000000000000000000000780000FC0009D
:101DF0001CE0001860001860001CE0000FF80007ED
:101E0000E0001FF000073800061800061800073829
:101E10000003F00001E000000000000000000000EE
:101E200000000000000000000000000000000000B2
:101E3000000000000000000003F00007F0000C604C
:101E4000000C00000C00000600000700000F9C00C2
:101E50001DFC0018F0001870000FFC0007DC0000EB
:101E60000000000000000000000000000000000072
:101E700000000000000000000000000000038000DF
:101E80000380000380000100000100000100000148
:101E90000000000000000000000000000000000042
:101EA0000000000000000000000000000000000032
:101EB0000000000000000000000000000000000022
:101EC000000000180000380000700000F00000E082
:101ED0000000E00001C00001C00001C00001C0001E
:101EE00001C00001C00000E00000E0000070000040
:101EF0007000003800001800000000000000000022
:101F0000000000000000000000001800001C00009D
:101F10000E00000E00000700000700000380000311
:101F2000800003800003800003800003800007001E
:101F3000000700000F00000E00001C000018000049
:101F40000000000000000000000000000000000091
:101F500000000180000180000180001DB8001FF812
:101F60000007E00003C00003C00006600006600038
:101F70000000000000000000000000000000000061
:101F80000000000000000000000000000000000051
:101F90000000000000000000000000000000000041
:101FA0000180000180000180000180000180003F6D
:101FB000FC003FFC000180000180000180000180E6
:101FC0000001800000000000000000000000000090
:101FD0000000000000000000000000000000000001
:101FE00000000000000000000000000000000000F1
:101FF00000000000000000000000000000000000E1
:1020000000000000000000E00000C00001C000016E
:1020100080000180000300000300000000000000B9
:1020200000000000000000000000000000000000B0
:102030000000000000000000000000000000001F81
:10204000F8001FF800000000000000000000000081
:102050000000000000000000000000000000000080
:102060000000000000000000000000000000000070
:102070000000000000000000000000000000000060
:102080000000000000000000000000000000000050
:1020900000000000000003C00003C00003C00000F7
:1020A0000000000000000000000000000000000030
:1020B0000000000000180000180000380000300088
:1020C00000700000600000600000C00000C000015F
:1020D00080000180000300000300000600000600ED
:1020E000000E00000C00001C00001800001800008A
:1020F00000000000000000000000000000000000E0
:10210000000003C00007E0000C30000C300018187D
:1021100000181800181800181800181800181800CF
:102120001818000C30000C300007E00003C000005D
:10213000000000000000000000000000000000009F
:102140000000000000000000000000800007800088
:102150001F80001D800001800001800001800001BF
:10216000800001800001800001800001800001806A
:10217000001FF8001FF80000000000000000000031
:10218000000000000000000000000000000000004F
:10219000000007C0001FF000383000301800301871
:1021A0000000180000300000600001C00003800043
:1021B0000600000C00001800003FF8003FF8000087
:1021C000000000000000000000000000000000000F
:1021D0000000000000000000000003C0000FE0004D
:1021E0000C700000300000300000600003C00003ED
:1021F000E0000070000018000018000018001838F7
:10220000001FF0000FC000000000000000000000F0
:1022100000000000000000000000000000000000BE
:10222000000000E00001E00001E000036000066043
:10223000000660000C60000C600018600030600058
:102240003FF8003FF80000600003F80003F80000CA
:10225000000000000000000000000000000000007E
:10226000000000000000000000001FF0001FF00050
:102270001800001800001800001BC0001FF0001C10
:10228000300000180000180000180000180030305E
:10229000003FF0000FC00000000000000000000040
:1022A000000000000000000000000000000000002E
:1022B000000000F80003F8000700000E00000C000A
:1022C000001800001BC0001FF0001C300018180090
:1022D0001818001818000C38000FF00003E0000078
:1022E00000000000000000000000000000000000EE
:1022F000000000000000000000001FF8001FF800B0
:10230000181800183800003000003000007000007D
:10231000600000600000E00000C00000C00001C0DC
:1023200000018000018000000000000000000000AB
:10233000000000000000000000000000000000009D
:10234000000007E0000FF0001C38001818001818F3
:10235000000C300007E00007E0000C300018180007
:102360001818001818001C38000FF00007E00000D3
:10237000000000000000000000000000000000005D
:102380000000000000000000000007C0000FF00087
:102390001C30001818001818001818000C38000F0E
:1023A000F80003D80000180000300000700000E0C2
:1023B000001FC0001F00000000000000000000001F
:1023C000000000000000000000000000000000000D
:1023D000000000000000000000000000000003C03A
:1023E0000003C00003C00000000000000000000067
:1023F00000000000000003C00003C00003C0000094
:1024000000000000000000000000000000000000CC
:1024100000000000000000000000000000000000BC
:1024200000000000000000F00000F00000F00000DC
:10243000000000000000000000000000E00001C0FB
:102440000001800001800003000002000000000085
:10245000000000000000000000000000000000007C
:102460000000000000000000001C00003C0000F024
:102470000003C0000F00003C0000F000003C000022
:102480000F000003C00000F000003C00001C000032
:10249000000000000000000000000000000000003C
:1024A000000000000000000000000000000000002C
:1024B0000000000000000000007FFC007FFC000026
:1024C00000000000007FFC007FFC00000000000016
:1024D00000000000000000000000000000000000FC
:1024E00000000000000000000000000000000000EC
:1024F00000000000000000007000007800001E00D6
:102500000007800001E000007800001E0000780055
:1025100001E0000780001E0000780000700000004D
:1025200000000000000000000000000000000000AB
:102530000000000000000000000000000007C000D4
:102540000FE0001870001830001830000070000014
:10255000E00003C000038000030000000000000052
:10256000000700000700000000000000000000005D
:10257000000000000000000000000000000000005B
:10258000000003E00007F0000E38000C1800187877
:102590000018F80019D80019980019980019980027
:1025A00018F8001878001800000C00000E1800073A
:1025B000F80003E000000000000000000000000040
:1025C000000000000000000000000000001F80006C
:1025D0001FC00001C0000360000360000630000659
:1025E00030000C30000FF8001FF800180C00300C01
:1025F00000FC7F00FC7F00000000000000000000E5
:1026000000000000000000000000000000000000CA
:1026100000000000007FE0007FF00018380018186C
:10262000001818001838001FF0001FF800181C00D0
:10263000180C00180C00180C007FF8007FF0000048
:10264000000000000000000000000000000000008A
:102650000000000000000000000000000003EC008B
:102660000FFC001C1C00180C00300C003000003067
:102670000000300000300000300000180C001C1C6E
:10268000000FF80003F00000000000000000000050
:10269000000000000000000000000000000000003A
:1026A00000000000007FC0007FF0001838001818FC
:1026B00000180C00180C00180C00180C00180C0066
:1026C000180C001818001838007FF0007FE0000098
:1026D00000000000000000000000000000000000FA
:1026E000000000000000000000000000007FF80073
:1026F0007FF8001818001818001998001980001F9A
:1027000080001F8000198000199800181800181800
:10271000007FF8007FF800000000000000000000CB
:1027200000000000000000000000000000000000A9
:1027300000000000003FFC003FFC000C0C000C0CF3
:10274000000CCC000CC0000FC0000FC0000CC0007B
:102750000CC0000C00000C00003FC0003FC0000097
:102760000000000000000000000000000000000069
:102770000000000000000000000000000003EC006A
:102780000FFC001C1C00180C00300C003000003046
:10279000000030FE0030FE00300C00380C001C1C25
:1027A000000FFC0003F0000000000000000000002B
:1027B0000000000000000000000000000000000019
:1027C00000000000007E7E007E7E001818001818B1
:1027D000001818001818001FF8001FF8001818003B
:1027E0001818001818001818007E7E007E7E000061
:1027F00000000000000000000000000000000000D9
:10280000000000000000000000000000001FF800B1
:102810001FF800018000018000018000018000019C
:1028200080000180000180000180000180000180A3
:10283000001FF8001FF8000000000000000000006A
:102840000000000000000000000000000000000088
:10285000000000000007FE0007FE0000300000300E
:102860000000300000300000300030300030300018
:102870003030003030003060003FE0000F8000005A
:102880000000000000000000000000000000000048
:10289000000000000000000000000000007F3E007B
:1028A0007F3E0018300018600018C0001980001B1F
:1028B00080001FC0001CE00018700018300018389D
:1028C000007F1F007F1F00000000000000000000CC
:1028D00000000000000000000000000000000000F8
:1028E00000000000007F80007F80000C00000C00D2
:1028F000000C00000C00000C00000C00000C0C0090
:102900000C0C000C0C000C0C007FFC007FFC000089
:1029100000000000000000000000000000000000B7
:1029200000000000000000000000000000F00F00A8
:10293000F81F00381C003C3C003C3C00366C003664
:102940006C0033CC0033CC00318C00300C00300CE8
:1029500000FE7F00FE7F000000000000000000007D
:102960000000000000000000000000000000000067
:10297000000000000078FE0078FE001C18001E1801
:10298000001F18001B18001B980019D80018D80049
:1029900018F8001878001838007F18007F18000019
:1029A0000000000000000000000000000000000027
:1029B0000000000000000000000000000003C00054
:1029C0000FF0001C3800181800381C00300C0030C4
:1029D0000C00300C00300C00381C001818001C389B
:1029E000000FF00003C00000000000000000000025
:1029F00000000000000000000000000000000000D7
:102A000000000000003FF0003FF8000C1C000C0C20
:102A1000000C0C000C0C000C18000FF8000FE0006C
:102A20000C00000C00000C00003FC0003FC0000084
:102A30000000000000000000000000000000000096
:102A40000000000000000000000000000003C000C3
:102A50000FF0001C3800181800381C00300C003033
:102A60000C00300C00300C00381C001818001C380A
:102A7000000FF00007C00007CC000FFC000C38006E
:102A80000000000000000000000000000000000046
:102A900000000000007FE0007FF0001838001818E8
:102AA000001818001838001FF0001FC00018E000C0
:102AB0001870001830001838007F1E007F0E0000CC
:102AC0000000000000000000000000000000000006
:102AD0000000000000000000000000000007D80017
:102AE0000FF8001C38001818001818001E00000FFE
:102AF000C00003F0000078001818001818001C38F7
:102B0000001FF0001BE000000000000000000000BB
:102B100000000000000000000000000000000000B5
:102B200000000000003FFC003FFC00318C00318CB5
:102B300000318C00318C0001800001800001800098
:102B40000180000180000180000FF0000FF0000004
:102B50000000000000000000000000000000000075
:102B6000000000000000000000000000007E7E0069
:102B70007E7E001818001818001818001818001881
:102B800018001818001818001818001818000C3031
:102B9000000FF00003C00000000000000000000073
:102BA0000000000000000000000000000000000025
:102BB00000000000007F7F007F7F00180C000C18D1
:102BC000000C18000C1800063000063000036000EE
:102BD00003600003600001C00001C000008000002D
:102BE00000000000000000000000000000000000E5
:102BF00000000000000000000000000000FE3F8018
:102C0000FE3F8030060030060030860019CC0019E7
:102C1000CC001B6C001B6C001E7C000E38000E38B4
:102C2000000C18000C18000000000000000000005C
:102C30000000000000000000000000000000000094
:102C400000000000007E7E007E7E001818000C3020
:102C50000006600003C00001800001800003C00086
:102C60000660000C30001818007E7E007E7E00009A
:102C70000000000000000000000000000000000054
:102C8000000000000000000000000000007C7E004A
:102C90007C7E001818000C300006600006600003FF
:102CA000C0000180000180000180000180000180DF
:102CB000000FF0000FF00000000000000000000016
:102CC0000000000000000000000000000000000004
:102CD00000000000001FF8001FF80018180018304E
:102CE0000018600018C000018000030000061800F2
:102CF0000C18001818003018003FF8003FF80000CA
:102D000000000000000000000000000000000000C3
:102D10000000000000000000000001F00001F000D1
:102D2000018000018000018000018000018000011D
:102D3000800001800001800001800001800001808E
:102D40000001800001800001800001F00001F0001E
:102D50000000000000000000000000001800001843
:102D600000001C00000C00000E0000060000060021
:102D70000003000003000001800001800000C0008B
:102D800000C0000060000060000070000030000023
:102D900038000018000018000000000000000000CB
:102DA000000000000000000000000F80000F800005
:102DB000018000018000018000018000018000018D
:102DC00080000180000180000180000180000180FE
:102DD000000180000180000180000F80000F800052
:102DE00000000000000000000000000000000000E3
:102DF000800001C00003E0000770000630000C18DE
:102E000000180C001004000000000000000000008A
:102E100000000000000000000000000000000000B2
:102E200000000000000000000000000000000000A2
:102E30000000000000000000000000000000000092
:102E40000000000000000000000000000000000082
:102E50000000000000000000000000000000000072
:102E60000000000000000000000000000000000062
:102E7000000000000000FFFF00FFFF000000000353
:102E8000000003800000E00000600000000000007F
:102E90000000000000000000000000000000000032
:102EA0000000000000000000000000000000000022
:102EB0000000000000000000000000000000000012
:102EC0000000000000000000000000000000000002
:102ED0000000000000000FC0001FE00000300000F4
:102EE000300007F0001FF000383000303000307044
:102EF000001FFC000FBC00000000000000000000EC
:102F000000000000000000000000000000000000C1
:102F100000007800007800001800001800001BE096
:102F2000001FF8001C1800180C00180C00180C00EA
:102F3000180C00180C001C18007FF8007BE0000043
:102F40000000000000000000000000000000000081
:102F50000000000000000000000000000000000071
:102F600000000000000003EC000FFC001C1C0038F7
:102F70000C00300C00300000300000380C001C1C2D
:102F8000000FF80003F00000000000000000000047
:102F90000000000000000000000000000000000031
:102FA000000000780000780000180000180007D822
:102FB000001FF800183800301800301800301800D2
:102FC0003018003018001838001FFE0007DE00001F
:102FD00000000000000000000000000000000000F1
:102FE00000000000000000000000000000000000E1
:102FF00000000000000007E0001FF8001818003073
:103000000C003FFC003FFC00300000300000180CBA
:10301000001FFC0007F0000000000000000000009E
:1030200000000000000000000000000000000000A0
:10303000000001FC0003FC000600000600003FF851
:10304000003FF80006000006000006000006000031
:103050000600000600000600003FF0003FF0000000
:103060000000000000000000000000000000000060
:103070000000000000000000000000000000000050
:1030800000000000000007DE001FFE0018380030BE
:1030900018003018003018003018003018001838A8
:1030A000001FF80007D800001800001800003800C2
:1030B0000FF0000FC0000000000000000000000042
:1030C00000007800007800001800001800001BE0E5
:1030D000001FF0001C3800181800181800181800FD
:1030E0001818001818001818007E7E007E7E000058
:1030F00000000000000000000000000000000000D0
:1031000000000000000000000000018000018000BD
:103110000000000000001F80001F800001800001EF
:10312000800001800001800001800001800001809A
:10313000003FFC003FFC0000000000000000000019
:10314000000000000000000000000000000000007F
:10315000000000C00000C0000000000000001FF0E0
:10316000001FF00000300000300000300000300090
:10317000003000003000003000003000003000005F
:1031800030000030000070001FE0001F80000000D1
:10319000000000000000000000003C00003C0000B7
:1031A0000C00000C00000CF8000CF8000CC0000D26
:1031B00080000F80000F00000F80000DC0000CE0A9
:1031C000003C7C003C7C000000000000000000008F
:1031D00000000000000000000000000000000000EF
:1031E00000001F80001F800001800001800001801E
:1031F000000180000180000180000180000180004A
:103200000180000180000180003FFC003FFC0000C5
:1032100000000000000000000000000000000000AE
:10322000000000000000000000000000000000009E
:10323000000000000000F77800FFFC0039CC0031EE
:103240008C00318C00318C00318C00318C00318C41
:1032500000FDEF00FDEF0000000000000000000096
:10326000000000000000000000000000000000005E
:1032700000000000000000000000000000007BE0F3
:10328000007FF0001C3800181800181800181800EB
:103290001818001818001818007E7E007E7E0000A6
:1032A000000000000000000000000000000000001E
:1032B000000000000000000000000000000000000E
:1032C00000000000000003C0000FF0001C380038B0
:1032D0001C00300C00300C00300C00381C001C3876
:1032E000000FF00003C0000000000000000000001C
:1032F00000000000000000000000000000000000CE
:1033000000000000000000000000000000007BE062
:10331000007FF8001C1800180C00180C00180C0096
:10332000180C00180C001C18001FF8001BE00018F7
:1033300000001800001800007F00007F000000005F
:10334000000000000000000000000000000000007D
:1033500000000000000007DE001FFE0018380030EB
:1033600018003018003018003018003018001838D5
:10337000001FF80007D8000018000018000018000F
:1033800000FE0000FE000000000000000000000041
:1033900000000000000000000000000000003E7877
:1033A000003EFC0007CC00070000060000060000FD
:1033B0000600000600000600003FF0003FF000009D
:1033C00000000000000000000000000000000000FD
:1033D00000000000000000000000000000000000ED
:1033E00000000000000007F8000FF800181800188F
:1033F00018001F80000FF00000F80018180018389F
:10340000001FF0001FE000000000000000000000AE
:1034100000000000000000000000000000000000AC
:1034200000000C00000C00000C00000C00003FF03D
:10343000003FF0000C00000C00000C00000C00002D
:103440000C00000C00000C1C0007FC0003F0000046
:10345000000000000000000000000000000000006C
:10346000000000000000000000000000000000005C
:103470000000000000007878007878001818001824
:103480001800181800181800181800181800183814
:10349000000FFE0007DE000000000000000000003A
:1034A000000000000000000000000000000000001C
:1034B00000000000000000000000000000007C3E52
:1034C000007C3E001818001818000C30000C30006A
:1034D00006600006600007E00003C00003C00000B3
:1034E00000000000000000000000000000000000DC
:1034F00000000000000000000000000000000000CC
:10350000000000000000783C00783C0031180033D7
:1035100098003398001AB0001EF0001EF0001C60E6
:10352000000C60000C6000000000000000000000C3
:10353000000000000000000000000000000000008B
:1035400000000000000000000000000000003E7CC1
:10355000003E7C000C300006600003C000018000CB
:1035600003C0000660000C30003E7C003E7C000082
:10357000000000000000000000000000000000004B
:10358000000000000000000000000000000000003B
:103590000000000000007E1F007E1F00180C000CC1
:1035A00018000C180006300006300003600003E02D
:1035B0000001C00000C00001800001800003000085
:1035C0003FC0003FC00000000000000000000000FD
:1035D00000000000000000000000000000001FF8D4
:1035E000001FF80018300018600000C000018000C3
:1035F0000300000618000C18001FF8001FF8000058
:1036000000000000000000000000000000000000BA
:103610000000000000000000000000E00001E000E9
:103620000180000180000180000180000180000114
:1036300080000380000700000380000180000180FB
:103640000001800001800001800001E00000E00036
:10365000000000000000000000000000000000006A
:1036600000000180000180000180000180000180D5
:1036700000018000018000018000018000018000C5
:1036800001800001800001800001800001800001B4
:1036900080000180000180000000000000000000A8
:1036A000000000000000000000000700000780008C
:1036B0000180000180000180000180000180000184
:1036C000800001C00000E00001C000018000018016
:1036D00000018000018000018000078000070000D9
:1036E00000000000000000000000000000000000DA
:1036F00000000000000000000000000000000000CA
:10370000000000000E00001F18003BB80031F00060
:1037100000E00000000000000000000000000000C9
:103720000000000000000000000000000000000099
:103730000000000000000000000000000000000089
:10374000001010101010000010000000006C48481D
:103750000000000000000000001414287C287C28D1
:1037600050500000001038404038487010100000E1
:10377000002050200C700814080000000000001801
:1037800020205448340000000010101010000000E9
:1037900000000000000808101010101010080800A9
:1037A00000202010101010101020200000107C109D
:1037B00028280000000000000000101010FE10106B
:1037C0001000000000000000000000181030200071
:1037D00000000000007C000000000000000000006D
:1037E0000000003030000000000404080810102021
:1037F0002040000000384444444444443800000061
:1038000000301010101010107C000000003844042C
:10381000081020447C0000000038440418040444CC
:1038200038000000000C141424447E040E00000034
:10383000003C20203804044438000000001C2040D4
:103840007844444438000000007C44040808081010
:10385000100000000038444438444444380000005C
:1038600000384444443C040870000000000000306C
:103870003000003030000000000000181800001870
:103880003020000000000C10608060100C00000070
:10389000000000007C007C00000000000000C02050
:1038A00018041820C00000000000182404081000AC
:1038B000300000003844444C54544C40443800001C
:1038C0000030102828287C44EE00000000F8444412
:1038D00078444444F8000000003C444040404044E8
:1038E0003800000000F0484444444448F000000020
:1038F00000FC445070504044FC000000007E222830
:103900003828202070000000003C4440404E4444D1
:103910003800000000EE44447C444444EE000000C3
:10392000007C1010101010107C000000003C0808F3
:10393000084848483000000000EE444850704844B1
:10394000E600000000702020202024247C000000DD
:1039500000EE6C6C54544444EE00000000EE6464CD
:103960005454544CEC000000003844444444444453
:103970003800000000782424243820207000000043
:103980000038444444444444381C000000F8444493
:1039900044784844E200000000344C403804046499
:1039A0005800000000FE92101010101038000000A7
:1039B00000EE4444444444443800000000EE4444D3
:1039C000282828101000000000EE44445454545499
:1039D0002800000000C6442810102844C60000003B
:1039E00000EE44282810101038000000007C440825
:1039F000101020447C0000000038202020202020CF
:103A00002020380000402020201010080808000066
:103A100000380808080808080808380000101028AE
:103A20004400000000000000000000000000000052
:103A3000000000FE00100800000000000000000070
:103A400000000038443C44443E00000000C04058A0
:103A500064444444F80000000000003C44404044FA
:103A600038000000000C04344C4444443E00000084
:103A700000000038447C40403C000000001C207CDA
:103A8000202020207C000000000000364C444444EC
:103A90003C04380000C0405864444444EE00000038
:103AA00000100070101010107C0000000010007852
:103AB000080808080808700000C0405C48705048BA
:103AC000DC00000000301010101010107C0000000E
:103AD000000000E854545454FE000000000000D8D8
:103AE00064444444EE000000000000384444444470
:103AF00038000000000000D8644444447840E000EE
:103B0000000000364C4444443C040E000000006CAD
:103B1000302020207C0000000000003C4438044499
:103B2000780000000000207C202020221C000000E3
:103B3000000000CC4444444C36000000000000EE7D
:103B40004444282810000000000000EE445454545F
:103B500028000000000000CC48303048CC000000B5
:103B6000000000EE44242818101078000000007CAB
:103B7000481020447C000000000810101010201095
:103B8000101008000010101010101010101000007D
:103B9000002010101010081010102000000000006D
:103BA0000024580000000000000000000000000099
:103BB00020202020002000005050000000000000C5
:103BC0002850F850F850A0002030603010602000DD
:103BD000202018601010000000382060507800008D
:103BE00020202000000000001020202020201000B5
:103BF00040202020202040002070205000000000A5
:103C0000002020F8202000000000000010202000EC
:103C10000000007000000000000000000020000014
:103C200010202020404080002050505050200000A4
:103C30006020202020F8000020502020407000004C
:103C40002050102010600000103050781038000014
:103C50007040601050200000304060505060000004
:103C600070501020202000002050205050200000D4
:103C70003050503010600000000020000020000094
:103C80000000100010200000001020C020100000D4
:103C9000007000700000000000402018204000006C
:103CA000205010200020000030484858484038007C
:103CB0006020507088D80000F048704848F000003C
:103CC0007050404040300000F048484848F0000044
:103CD000F848604048F80000F848604040E00000C4
:103CE0007040405850300000E848784848E80000EC
:103CF000702020202070000038101050502000004C
:103D0000D850607050D80000E040404048F80000B3
:103D1000D8D8D8A888D80000D868685858E80000D3
:103D20003048484848300000F048487040E0000003
:103D30003048484848301800F048487048E80000CB
:103D40007050201050700000F8A820202070000053
:103D5000D848484848300000D888485050300000C3
:103D6000D888A8A8A8500000D850202050D800001B
:103D7000D888502020700000784810204878000033
:103D800030202020202030008040402020201000C3
:103D90006020202020206000202050000000000033
:103DA00000000000000000F82010000000000000EB
:103DB0000000301070780000C040704848F00000EB
:103DC0000000704040700000180838484838000073
:103DD0000000707040300000102070202070000043
:103DE0000000384848380830C040704848E80000B3
:103DF0002000602020700000200070101010107053
:103E0000C040587050D80000602020202070000072
:103E10000000D0A8A8A800000000F04848C8000092
:103E200000003048483000000000F048487040E092
:103E3000000038484838081800007820207000003A
:103E400000003020106000000040F04048300000CA
:103E50000000D848483800000000C8483030000052
:103E60000000D8A8A85000000000483030480000EA
:103E70000000D850502020600000785028780000C2
:103E80001020206020201000202020202020200052
:103E9000402020302020400000000028500000007A
:103EA000C03E00080000002044000000701400081C
:103EB000043F000844000020DC400000801400089B
:103EC000000000000024F4000000000000000000DA
:103ED00000000240001000000018024000180240DC
:103EE0007C1C0008110018003437000807000C0083
:103EF000000000000000000000000000A83B0008D7
:043F000005000800B0
:04000005080001AD41
:00000001FF
